{
  "_format": "hh-sol-artifact-1",
  "contractName": "DataQuestToken",
  "sourceName": "contracts/DataQuestToken.sol",
  "abi": [
    {
      "inputs": [],
      "stateMutability": "nonpayable",
      "type": "constructor"
    },
    {
      "inputs": [
        {
          "internalType": "address",
          "name": "spender",
          "type": "address"
        },
        {
          "internalType": "uint256",
          "name": "allowance",
          "type": "uint256"
        },
        {
          "internalType": "uint256",
          "name": "needed",
          "type": "uint256"
        }
      ],
      "name": "ERC20InsufficientAllowance",
      "type": "error"
    },
    {
      "inputs": [
        {
          "internalType": "address",
          "name": "sender",
          "type": "address"
        },
        {
          "internalType": "uint256",
          "name": "balance",
          "type": "uint256"
        },
        {
          "internalType": "uint256",
          "name": "needed",
          "type": "uint256"
        }
      ],
      "name": "ERC20InsufficientBalance",
      "type": "error"
    },
    {
      "inputs": [
        {
          "internalType": "address",
          "name": "approver",
          "type": "address"
        }
      ],
      "name": "ERC20InvalidApprover",
      "type": "error"
    },
    {
      "inputs": [
        {
          "internalType": "address",
          "name": "receiver",
          "type": "address"
        }
      ],
      "name": "ERC20InvalidReceiver",
      "type": "error"
    },
    {
      "inputs": [
        {
          "internalType": "address",
          "name": "sender",
          "type": "address"
        }
      ],
      "name": "ERC20InvalidSender",
      "type": "error"
    },
    {
      "inputs": [
        {
          "internalType": "address",
          "name": "spender",
          "type": "address"
        }
      ],
      "name": "ERC20InvalidSpender",
      "type": "error"
    },
    {
      "inputs": [
        {
          "internalType": "address",
          "name": "owner",
          "type": "address"
        }
      ],
      "name": "OwnableInvalidOwner",
      "type": "error"
    },
    {
      "inputs": [
        {
          "internalType": "address",
          "name": "account",
          "type": "address"
        }
      ],
      "name": "OwnableUnauthorizedAccount",
      "type": "error"
    },
    {
      "inputs": [],
      "name": "ReentrancyGuardReentrantCall",
      "type": "error"
    },
    {
      "anonymous": false,
      "inputs": [
        {
          "indexed": true,
          "internalType": "address",
          "name": "owner",
          "type": "address"
        },
        {
          "indexed": true,
          "internalType": "address",
          "name": "spender",
          "type": "address"
        },
        {
          "indexed": false,
          "internalType": "uint256",
          "name": "value",
          "type": "uint256"
        }
      ],
      "name": "Approval",
      "type": "event"
    },
    {
      "anonymous": false,
      "inputs": [
        {
          "indexed": true,
          "internalType": "address",
          "name": "previousOwner",
          "type": "address"
        },
        {
          "indexed": true,
          "internalType": "address",
          "name": "newOwner",
          "type": "address"
        }
      ],
      "name": "OwnershipTransferred",
      "type": "event"
    },
    {
      "anonymous": false,
      "inputs": [
        {
          "indexed": true,
          "internalType": "address",
          "name": "user",
          "type": "address"
        },
        {
          "indexed": false,
          "internalType": "uint256",
          "name": "reward",
          "type": "uint256"
        }
      ],
      "name": "RewardPaid",
      "type": "event"
    },
    {
      "anonymous": false,
      "inputs": [
        {
          "indexed": true,
          "internalType": "address",
          "name": "user",
          "type": "address"
        },
        {
          "indexed": false,
          "internalType": "uint256",
          "name": "amount",
          "type": "uint256"
        }
      ],
      "name": "Staked",
      "type": "event"
    },
    {
      "anonymous": false,
      "inputs": [
        {
          "indexed": true,
          "internalType": "address",
          "name": "from",
          "type": "address"
        },
        {
          "indexed": true,
          "internalType": "address",
          "name": "to",
          "type": "address"
        },
        {
          "indexed": false,
          "internalType": "uint256",
          "name": "value",
          "type": "uint256"
        }
      ],
      "name": "Transfer",
      "type": "event"
    },
    {
      "anonymous": false,
      "inputs": [
        {
          "indexed": true,
          "internalType": "address",
          "name": "user",
          "type": "address"
        },
        {
          "indexed": false,
          "internalType": "uint256",
          "name": "amount",
          "type": "uint256"
        },
        {
          "indexed": false,
          "internalType": "uint256",
          "name": "reward",
          "type": "uint256"
        }
      ],
      "name": "Unstaked",
      "type": "event"
    },
    {
      "inputs": [],
      "name": "APY",
      "outputs": [
        {
          "internalType": "uint256",
          "name": "",
          "type": "uint256"
        }
      ],
      "stateMutability": "view",
      "type": "function"
    },
    {
      "inputs": [],
      "name": "MINIMUM_STAKE_AMOUNT",
      "outputs": [
        {
          "internalType": "uint256",
          "name": "",
          "type": "uint256"
        }
      ],
      "stateMutability": "view",
      "type": "function"
    },
    {
      "inputs": [],
      "name": "STAKE_DURATION",
      "outputs": [
        {
          "internalType": "uint256",
          "name": "",
          "type": "uint256"
        }
      ],
      "stateMutability": "view",
      "type": "function"
    },
    {
      "inputs": [
        {
          "internalType": "address",
          "name": "owner",
          "type": "address"
        },
        {
          "internalType": "address",
          "name": "spender",
          "type": "address"
        }
      ],
      "name": "allowance",
      "outputs": [
        {
          "internalType": "uint256",
          "name": "",
          "type": "uint256"
        }
      ],
      "stateMutability": "view",
      "type": "function"
    },
    {
      "inputs": [
        {
          "internalType": "address",
          "name": "spender",
          "type": "address"
        },
        {
          "internalType": "uint256",
          "name": "value",
          "type": "uint256"
        }
      ],
      "name": "approve",
      "outputs": [
        {
          "internalType": "bool",
          "name": "",
          "type": "bool"
        }
      ],
      "stateMutability": "nonpayable",
      "type": "function"
    },
    {
      "inputs": [
        {
          "internalType": "address",
          "name": "account",
          "type": "address"
        }
      ],
      "name": "balanceOf",
      "outputs": [
        {
          "internalType": "uint256",
          "name": "",
          "type": "uint256"
        }
      ],
      "stateMutability": "view",
      "type": "function"
    },
    {
      "inputs": [],
      "name": "decimals",
      "outputs": [
        {
          "internalType": "uint8",
          "name": "",
          "type": "uint8"
        }
      ],
      "stateMutability": "view",
      "type": "function"
    },
    {
      "inputs": [],
      "name": "getReward",
      "outputs": [
        {
          "internalType": "uint256",
          "name": "",
          "type": "uint256"
        }
      ],
      "stateMutability": "view",
      "type": "function"
    },
    {
      "inputs": [],
      "name": "name",
      "outputs": [
        {
          "internalType": "string",
          "name": "",
          "type": "string"
        }
      ],
      "stateMutability": "view",
      "type": "function"
    },
    {
      "inputs": [],
      "name": "owner",
      "outputs": [
        {
          "internalType": "address",
          "name": "",
          "type": "address"
        }
      ],
      "stateMutability": "view",
      "type": "function"
    },
    {
      "inputs": [],
      "name": "renounceOwnership",
      "outputs": [],
      "stateMutability": "nonpayable",
      "type": "function"
    },
    {
      "inputs": [
        {
          "internalType": "uint256",
          "name": "amount",
          "type": "uint256"
        }
      ],
      "name": "stake",
      "outputs": [],
      "stateMutability": "nonpayable",
      "type": "function"
    },
    {
      "inputs": [
        {
          "internalType": "address",
          "name": "",
          "type": "address"
        }
      ],
      "name": "stakes",
      "outputs": [
        {
          "internalType": "uint256",
          "name": "amount",
          "type": "uint256"
        },
        {
          "internalType": "uint256",
          "name": "timestamp",
          "type": "uint256"
        }
      ],
      "stateMutability": "view",
      "type": "function"
    },
    {
      "inputs": [],
      "name": "symbol",
      "outputs": [
        {
          "internalType": "string",
          "name": "",
          "type": "string"
        }
      ],
      "stateMutability": "view",
      "type": "function"
    },
    {
      "inputs": [],
      "name": "totalSupply",
      "outputs": [
        {
          "internalType": "uint256",
          "name": "",
          "type": "uint256"
        }
      ],
      "stateMutability": "view",
      "type": "function"
    },
    {
      "inputs": [
        {
          "internalType": "address",
          "name": "to",
          "type": "address"
        },
        {
          "internalType": "uint256",
          "name": "value",
          "type": "uint256"
        }
      ],
      "name": "transfer",
      "outputs": [
        {
          "internalType": "bool",
          "name": "",
          "type": "bool"
        }
      ],
      "stateMutability": "nonpayable",
      "type": "function"
    },
    {
      "inputs": [
        {
          "internalType": "address",
          "name": "from",
          "type": "address"
        },
        {
          "internalType": "address",
          "name": "to",
          "type": "address"
        },
        {
          "internalType": "uint256",
          "name": "value",
          "type": "uint256"
        }
      ],
      "name": "transferFrom",
      "outputs": [
        {
          "internalType": "bool",
          "name": "",
          "type": "bool"
        }
      ],
      "stateMutability": "nonpayable",
      "type": "function"
    },
    {
      "inputs": [
        {
          "internalType": "address",
          "name": "newOwner",
          "type": "address"
        }
      ],
      "name": "transferOwnership",
      "outputs": [],
      "stateMutability": "nonpayable",
      "type": "function"
    },
    {
      "inputs": [],
      "name": "unstake",
      "outputs": [],
      "stateMutability": "nonpayable",
      "type": "function"
    }
  ],
  "bytecode": "0x60806040523480156200001157600080fd5b50336040518060400160405280600f81526020016e2230ba30a8bab2b9ba102a37b5b2b760891b8152506040518060400160405280600381526020016211145560ea1b815250816003908162000068919062000351565b50600462000077828262000351565b5050506001600160a01b038116620000aa57604051631e4fbdf760e01b8152600060048201526024015b60405180910390fd5b620000b581620000e9565b506001600655620000e333620000ce6012600a62000532565b620000dd90620f42406200054a565b6200013b565b6200057a565b600580546001600160a01b038381166001600160a01b0319831681179093556040519116919082907f8be0079c531659141344cd1fd0a4f28419497f9722a3daafe3b4186f6b6457e090600090a35050565b6001600160a01b038216620001675760405163ec442f0560e01b815260006004820152602401620000a1565b620001756000838362000179565b5050565b6001600160a01b038316620001a85780600260008282546200019c919062000564565b909155506200021c9050565b6001600160a01b03831660009081526020819052604090205481811015620001fd5760405163391434e360e21b81526001600160a01b03851660048201526024810182905260448101839052606401620000a1565b6001600160a01b03841660009081526020819052604090209082900390555b6001600160a01b0382166200023a5760028054829003905562000259565b6001600160a01b03821660009081526020819052604090208054820190555b816001600160a01b0316836001600160a01b03167fddf252ad1be2c89b69c2b068fc378daa952ba7f163c4a11628f55a4df523b3ef836040516200029f91815260200190565b60405180910390a3505050565b634e487b7160e01b600052604160045260246000fd5b600181811c90821680620002d757607f821691505b602082108103620002f857634e487b7160e01b600052602260045260246000fd5b50919050565b601f8211156200034c57600081815260208120601f850160051c81016020861015620003275750805b601f850160051c820191505b81811015620003485782815560010162000333565b5050505b505050565b81516001600160401b038111156200036d576200036d620002ac565b62000385816200037e8454620002c2565b84620002fe565b602080601f831160018114620003bd5760008415620003a45750858301515b600019600386901b1c1916600185901b17855562000348565b600085815260208120601f198616915b82811015620003ee57888601518255948401946001909101908401620003cd565b50858210156200040d5787850151600019600388901b60f8161c191681555b5050505050600190811b01905550565b634e487b7160e01b600052601160045260246000fd5b600181815b80851115620004745781600019048211156200045857620004586200041d565b808516156200046657918102915b93841c939080029062000438565b509250929050565b6000826200048d575060016200052c565b816200049c575060006200052c565b8160018114620004b55760028114620004c057620004e0565b60019150506200052c565b60ff841115620004d457620004d46200041d565b50506001821b6200052c565b5060208310610133831016604e8410600b841016171562000505575081810a6200052c565b62000511838362000433565b80600019048211156200052857620005286200041d565b0290505b92915050565b60006200054360ff8416836200047c565b9392505050565b80820281158282048414176200052c576200052c6200041d565b808201808211156200052c576200052c6200041d565b610d27806200058a6000396000f3fe608060405234801561001057600080fd5b50600436106101215760003560e01c806370a08231116100ad578063a694fc3a11610071578063a694fc3a14610258578063a9059cbb1461026b578063dd62ed3e1461027e578063ef8bd305146102b7578063f2fde38b146102bf57600080fd5b806370a08231146101f4578063715018a61461021d57806384d804be146102255780638da5cb5b1461023557806395d89b411461025057600080fd5b806323b872dd116100f457806323b872dd146101b55780632def6620146101c8578063313ce567146101d25780633d18b912146101e15780636afb630a146101e957600080fd5b806306fdde0314610126578063095ea7b31461014457806316934fc41461016757806318160ddd146101a3575b600080fd5b61012e6102d2565b60405161013b9190610b04565b60405180910390f35b610157610152366004610b6e565b610364565b604051901515815260200161013b565b61018e610175366004610b98565b6007602052600090815260409020805460019091015482565b6040805192835260208301919091520161013b565b6002545b60405190815260200161013b565b6101576101c3366004610bba565b61037e565b6101d06103a2565b005b6040516012815260200161013b565b6101a7610484565b6101a76301e1338081565b6101a7610202366004610b98565b6001600160a01b031660009081526020819052604090205490565b6101d0610494565b6101a768056bc75e2d6310000081565b6005546040516001600160a01b03909116815260200161013b565b61012e6104a6565b6101d0610266366004610bf6565b6104b5565b610157610279366004610b6e565b6105fa565b6101a761028c366004610c0f565b6001600160a01b03918216600090815260016020908152604080832093909416825291909152205490565b6101a7600c81565b6101d06102cd366004610b98565b610608565b6060600380546102e190610c42565b80601f016020809104026020016040519081016040528092919081815260200182805461030d90610c42565b801561035a5780601f1061032f5761010080835404028352916020019161035a565b820191906000526020600020905b81548152906001019060200180831161033d57829003601f168201915b5050505050905090565b600033610372818585610643565b60019150505b92915050565b60003361038c858285610655565b6103978585856106d4565b506001949350505050565b6103aa610733565b33600090815260076020526040902080546103fe5760405162461bcd60e51b815260206004820152600f60248201526e4e6f20616374697665207374616b6560881b60448201526064015b60405180910390fd5b60006104093361075d565b8254336000818152600760205260408120818155600101559192509061042f90836107e8565b61043a3033836106d4565b604080518281526020810184905233917f7fc4727e062e336010f2c282598ef5f14facb3de68cf8195c2f23e1454b2b74e910160405180910390a25050506104826001600655565b565b600061048f3361075d565b905090565b61049c610822565b610482600061084f565b6060600480546102e190610c42565b6104bd610733565b68056bc75e2d6310000081101561050d5760405162461bcd60e51b81526020600482015260146024820152735374616b6520616d6f756e7420746f6f206c6f7760601b60448201526064016103f5565b336000908152602081905260409020548111156105635760405162461bcd60e51b8152602060048201526014602482015273496e73756666696369656e742062616c616e636560601b60448201526064016103f5565b336000908152600760205260409020541561058157610581336108a1565b61058c3330836106d4565b6040805180820182528281524260208083019182523360008181526007835285902093518455915160019093019290925591518381527f9e71bc8eea02a63969f509818f2dafb9254532904319f9dbda79b67bd34a5f3d910160405180910390a26105f76001600655565b50565b6000336103728185856106d4565b610610610822565b6001600160a01b03811661063a57604051631e4fbdf760e01b8152600060048201526024016103f5565b6105f78161084f565b6106508383836001610905565b505050565b6001600160a01b038381166000908152600160209081526040808320938616835292905220546000198110156106ce57818110156106bf57604051637dc7a0d960e11b81526001600160a01b038416600482015260248101829052604481018390526064016103f5565b6106ce84848484036000610905565b50505050565b6001600160a01b0383166106fe57604051634b637e8f60e11b8152600060048201526024016103f5565b6001600160a01b0382166107285760405163ec442f0560e01b8152600060048201526024016103f5565b6106508383836109da565b60026006540361075657604051633ee5aeb560e01b815260040160405180910390fd5b6002600655565b6001600160a01b0381166000908152600760205260408120805482036107865750600092915050565b60008160010154426107989190610c92565b90506301e133808111156107ad57506301e133805b6107bc6301e133806064610ca5565b825482906107cc90600c90610ca5565b6107d69190610ca5565b6107e09190610cbc565b949350505050565b6001600160a01b0382166108125760405163ec442f0560e01b8152600060048201526024016103f5565b61081e600083836109da565b5050565b6005546001600160a01b031633146104825760405163118cdaa760e01b81523360048201526024016103f5565b600580546001600160a01b038381166001600160a01b0319831681179093556040519116919082907f8be0079c531659141344cd1fd0a4f28419497f9722a3daafe3b4186f6b6457e090600090a35050565b60006108ac8261075d565b9050801561081e576108be82826107e8565b816001600160a01b03167fe2403640ba68fed3a2f88b7557551d1993f84b99bb10ff833f0cf8db0c5e0486826040516108f991815260200190565b60405180910390a25050565b6001600160a01b03841661092f5760405163e602df0560e01b8152600060048201526024016103f5565b6001600160a01b03831661095957604051634a1406b160e11b8152600060048201526024016103f5565b6001600160a01b03808516600090815260016020908152604080832093871683529290522082905580156106ce57826001600160a01b0316846001600160a01b03167f8c5be1e5ebec7d5bd14f71427d1e84f3dd0314c0f7b2291e5b200ac8c7c3b925846040516109cc91815260200190565b60405180910390a350505050565b6001600160a01b038316610a055780600260008282546109fa9190610cde565b90915550610a779050565b6001600160a01b03831660009081526020819052604090205481811015610a585760405163391434e360e21b81526001600160a01b038516600482015260248101829052604481018390526064016103f5565b6001600160a01b03841660009081526020819052604090209082900390555b6001600160a01b038216610a9357600280548290039055610ab2565b6001600160a01b03821660009081526020819052604090208054820190555b816001600160a01b0316836001600160a01b03167fddf252ad1be2c89b69c2b068fc378daa952ba7f163c4a11628f55a4df523b3ef83604051610af791815260200190565b60405180910390a3505050565b600060208083528351808285015260005b81811015610b3157858101830151858201604001528201610b15565b506000604082860101526040601f19601f8301168501019250505092915050565b80356001600160a01b0381168114610b6957600080fd5b919050565b60008060408385031215610b8157600080fd5b610b8a83610b52565b946020939093013593505050565b600060208284031215610baa57600080fd5b610bb382610b52565b9392505050565b600080600060608486031215610bcf57600080fd5b610bd884610b52565b9250610be660208501610b52565b9150604084013590509250925092565b600060208284031215610c0857600080fd5b5035919050565b60008060408385031215610c2257600080fd5b610c2b83610b52565b9150610c3960208401610b52565b90509250929050565b600181811c90821680610c5657607f821691505b602082108103610c7657634e487b7160e01b600052602260045260246000fd5b50919050565b634e487b7160e01b600052601160045260246000fd5b8181038181111561037857610378610c7c565b808202811582820484141761037857610378610c7c565b600082610cd957634e487b7160e01b600052601260045260246000fd5b500490565b8082018082111561037857610378610c7c56fea264697066735822122079d5db6a393c09f9c5c7398e1f9ae728e86822af719b17cc728c911e0726f85864736f6c63430008140033",
  "linkReferences": {},
  "deployedLinkReferences": {}
}