{
  "_format": "hh-sol-artifact-1",
  "contractName": "LearningMarketplace",
  "sourceName": "contracts/LearningMarketplace.sol",
  "abi": [
    {
      "inputs": [
        {
          "internalType": "address",
          "name": "_paymentToken",
          "type": "address"
        }
      ],
      "stateMutability": "nonpayable",
      "type": "constructor"
    },
    {
      "inputs": [
        {
          "internalType": "address",
          "name": "owner",
          "type": "address"
        }
      ],
      "name": "OwnableInvalidOwner",
      "type": "error"
    },
    {
      "inputs": [
        {
          "internalType": "address",
          "name": "account",
          "type": "address"
        }
      ],
      "name": "OwnableUnauthorizedAccount",
      "type": "error"
    },
    {
      "inputs": [],
      "name": "ReentrancyGuardReentrantCall",
      "type": "error"
    },
    {
      "anonymous": false,
      "inputs": [
        {
          "indexed": true,
          "internalType": "uint256",
          "name": "courseId",
          "type": "uint256"
        },
        {
          "indexed": true,
          "internalType": "address",
          "name": "creator",
          "type": "address"
        },
        {
          "indexed": false,
          "internalType": "uint256",
          "name": "price",
          "type": "uint256"
        },
        {
          "indexed": false,
          "internalType": "string",
          "name": "metadataURI",
          "type": "string"
        }
      ],
      "name": "CourseCreated",
      "type": "event"
    },
    {
      "anonymous": false,
      "inputs": [
        {
          "indexed": true,
          "internalType": "uint256",
          "name": "courseId",
          "type": "uint256"
        },
        {
          "indexed": true,
          "internalType": "address",
          "name": "student",
          "type": "address"
        }
      ],
      "name": "CoursePurchased",
      "type": "event"
    },
    {
      "anonymous": false,
      "inputs": [
        {
          "indexed": true,
          "internalType": "uint256",
          "name": "courseId",
          "type": "uint256"
        },
        {
          "indexed": false,
          "internalType": "bool",
          "name": "active",
          "type": "bool"
        }
      ],
      "name": "CourseStatusChanged",
      "type": "event"
    },
    {
      "anonymous": false,
      "inputs": [
        {
          "indexed": true,
          "internalType": "uint256",
          "name": "courseId",
          "type": "uint256"
        },
        {
          "indexed": false,
          "internalType": "uint256",
          "name": "price",
          "type": "uint256"
        },
        {
          "indexed": false,
          "internalType": "string",
          "name": "metadataURI",
          "type": "string"
        }
      ],
      "name": "CourseUpdated",
      "type": "event"
    },
    {
      "anonymous": false,
      "inputs": [
        {
          "indexed": true,
          "internalType": "address",
          "name": "previousOwner",
          "type": "address"
        },
        {
          "indexed": true,
          "internalType": "address",
          "name": "newOwner",
          "type": "address"
        }
      ],
      "name": "OwnershipTransferred",
      "type": "event"
    },
    {
      "anonymous": false,
      "inputs": [
        {
          "indexed": true,
          "internalType": "address",
          "name": "creator",
          "type": "address"
        },
        {
          "indexed": false,
          "internalType": "uint256",
          "name": "amount",
          "type": "uint256"
        }
      ],
      "name": "RevenueWithdrawn",
      "type": "event"
    },
    {
      "inputs": [
        {
          "internalType": "uint256",
          "name": "",
          "type": "uint256"
        }
      ],
      "name": "courseRevenue",
      "outputs": [
        {
          "internalType": "uint256",
          "name": "",
          "type": "uint256"
        }
      ],
      "stateMutability": "view",
      "type": "function"
    },
    {
      "inputs": [
        {
          "internalType": "uint256",
          "name": "",
          "type": "uint256"
        }
      ],
      "name": "courses",
      "outputs": [
        {
          "internalType": "address",
          "name": "creator",
          "type": "address"
        },
        {
          "internalType": "uint256",
          "name": "price",
          "type": "uint256"
        },
        {
          "internalType": "string",
          "name": "metadataURI",
          "type": "string"
        },
        {
          "internalType": "bool",
          "name": "active",
          "type": "bool"
        },
        {
          "internalType": "uint256",
          "name": "revenueShare",
          "type": "uint256"
        }
      ],
      "stateMutability": "view",
      "type": "function"
    },
    {
      "inputs": [
        {
          "internalType": "uint256",
          "name": "price",
          "type": "uint256"
        },
        {
          "internalType": "string",
          "name": "metadataURI",
          "type": "string"
        },
        {
          "internalType": "uint256",
          "name": "revenueShare",
          "type": "uint256"
        }
      ],
      "name": "createCourse",
      "outputs": [
        {
          "internalType": "uint256",
          "name": "",
          "type": "uint256"
        }
      ],
      "stateMutability": "nonpayable",
      "type": "function"
    },
    {
      "inputs": [
        {
          "internalType": "uint256",
          "name": "courseId",
          "type": "uint256"
        }
      ],
      "name": "getCourse",
      "outputs": [
        {
          "internalType": "address",
          "name": "creator",
          "type": "address"
        },
        {
          "internalType": "uint256",
          "name": "price",
          "type": "uint256"
        },
        {
          "internalType": "string",
          "name": "metadataURI",
          "type": "string"
        },
        {
          "internalType": "bool",
          "name": "active",
          "type": "bool"
        },
        {
          "internalType": "uint256",
          "name": "revenueShare",
          "type": "uint256"
        }
      ],
      "stateMutability": "view",
      "type": "function"
    },
    {
      "inputs": [],
      "name": "nextCourseId",
      "outputs": [
        {
          "internalType": "uint256",
          "name": "",
          "type": "uint256"
        }
      ],
      "stateMutability": "view",
      "type": "function"
    },
    {
      "inputs": [],
      "name": "owner",
      "outputs": [
        {
          "internalType": "address",
          "name": "",
          "type": "address"
        }
      ],
      "stateMutability": "view",
      "type": "function"
    },
    {
      "inputs": [],
      "name": "paymentToken",
      "outputs": [
        {
          "internalType": "contract IERC20",
          "name": "",
          "type": "address"
        }
      ],
      "stateMutability": "view",
      "type": "function"
    },
    {
      "inputs": [],
      "name": "platformFee",
      "outputs": [
        {
          "internalType": "uint256",
          "name": "",
          "type": "uint256"
        }
      ],
      "stateMutability": "view",
      "type": "function"
    },
    {
      "inputs": [
        {
          "internalType": "uint256",
          "name": "courseId",
          "type": "uint256"
        }
      ],
      "name": "purchaseCourse",
      "outputs": [],
      "stateMutability": "nonpayable",
      "type": "function"
    },
    {
      "inputs": [],
      "name": "renounceOwnership",
      "outputs": [],
      "stateMutability": "nonpayable",
      "type": "function"
    },
    {
      "inputs": [
        {
          "internalType": "uint256",
          "name": "courseId",
          "type": "uint256"
        }
      ],
      "name": "toggleCourseStatus",
      "outputs": [],
      "stateMutability": "nonpayable",
      "type": "function"
    },
    {
      "inputs": [
        {
          "internalType": "address",
          "name": "newOwner",
          "type": "address"
        }
      ],
      "name": "transferOwnership",
      "outputs": [],
      "stateMutability": "nonpayable",
      "type": "function"
    },
    {
      "inputs": [
        {
          "internalType": "uint256",
          "name": "courseId",
          "type": "uint256"
        },
        {
          "internalType": "uint256",
          "name": "newPrice",
          "type": "uint256"
        },
        {
          "internalType": "string",
          "name": "newMetadataURI",
          "type": "string"
        }
      ],
      "name": "updateCourse",
      "outputs": [],
      "stateMutability": "nonpayable",
      "type": "function"
    },
    {
      "inputs": [
        {
          "internalType": "uint256",
          "name": "newFee",
          "type": "uint256"
        }
      ],
      "name": "updatePlatformFee",
      "outputs": [],
      "stateMutability": "nonpayable",
      "type": "function"
    },
    {
      "inputs": [
        {
          "internalType": "address",
          "name": "",
          "type": "address"
        },
        {
          "internalType": "uint256",
          "name": "",
          "type": "uint256"
        }
      ],
      "name": "userHasAccess",
      "outputs": [
        {
          "internalType": "bool",
          "name": "",
          "type": "bool"
        }
      ],
      "stateMutability": "view",
      "type": "function"
    },
    {
      "inputs": [
        {
          "internalType": "uint256",
          "name": "courseId",
          "type": "uint256"
        }
      ],
      "name": "withdrawRevenue",
      "outputs": [],
      "stateMutability": "nonpayable",
      "type": "function"
    }
  ],
  "bytecode": "0x60a0604052600a60065534801561001557600080fd5b50604051611382380380611382833981016040819052610034916100c9565b338061005a57604051631e4fbdf760e01b81526000600482015260240160405180910390fd5b61006381610079565b50600180556001600160a01b03166080526100f9565b600080546001600160a01b038381166001600160a01b0319831681178455604051919092169283917f8be0079c531659141344cd1fd0a4f28419497f9722a3daafe3b4186f6b6457e09190a35050565b6000602082840312156100db57600080fd5b81516001600160a01b03811681146100f257600080fd5b9392505050565b6080516112596101296000396000818161018901528181610536015281816108e001526109c001526112596000f3fe608060405234801561001057600080fd5b50600436106101005760003560e01c80637554939411610097578063aa0b598811610066578063aa0b598814610256578063cd13193814610269578063d7237f021461027c578063f2fde38b1461028f57600080fd5b806375549394146101eb5780637d83daf2146102295780638da5cb5b1461023257806396f979d21461024357600080fd5b8063288c6ca7116100d3578063288c6ca7146101715780633013ce291461018457806330a6817c146101c3578063715018a6146101e357600080fd5b80630b91e28d146101055780630bfc5266146101325780630ceff2041461014757806326232a2e1461015a575b600080fd5b610118610113366004610db8565b6102a2565b604051610129959493929190610e17565b60405180910390f35b610145610140366004610db8565b610388565b005b610145610155366004610db8565b61044b565b61016360065481565b604051908152602001610129565b61014561017f366004610ef5565b61062c565b6101ab7f000000000000000000000000000000000000000000000000000000000000000081565b6040516001600160a01b039091168152602001610129565b6101636101d1366004610db8565b60046020526000908152604090205481565b6101456106de565b6102196101f9366004610f61565b600360209081526000928352604080842090915290825290205460ff1681565b6040519015158152602001610129565b61016360055481565b6000546001600160a01b03166101ab565b610118610251366004610db8565b6106f2565b610145610264366004610db8565b6107b9565b610145610277366004610db8565b610806565b61016361028a366004610f8b565b610b38565b61014561029d366004610fdb565b610cd6565b600081815260026020819052604082208054600182015460038301546004840154948401805487966060968896879691956001600160a01b03909116949193919260ff9091169183906102f490610ffd565b80601f016020809104026020016040519081016040528092919081815260200182805461032090610ffd565b801561036d5780601f106103425761010080835404028352916020019161036d565b820191906000526020600020905b81548152906001019060200180831161035057829003601f168201915b50505050509250955095509550955095505091939590929450565b600081815260026020526040902080546001600160a01b03163314806103b857506000546001600160a01b031633145b6103f85760405162461bcd60e51b815260206004820152600c60248201526b155b985d5d1a1bdc9a5e995960a21b60448201526064015b60405180910390fd5b60038101805460ff8082161560ff19909216821790925560405191161515815282907f090f6bc7903a4711e0694aded118c02e3c32ea7763fd9bdfbbbab79fc01689199060200160405180910390a25050565b610453610d11565b600081815260026020526040902080546001600160a01b031633146104af5760405162461bcd60e51b81526020600482015260126024820152712737ba1031b7bab939b29031b932b0ba37b960711b60448201526064016103ef565b600082815260046020526040902054806105045760405162461bcd60e51b81526020600482015260166024820152754e6f20726576656e756520746f20776974686472617760501b60448201526064016103ef565b600083815260046020819052604080832092909255905163a9059cbb60e01b81523391810191909152602481018290527f00000000000000000000000000000000000000000000000000000000000000006001600160a01b03169063a9059cbb906044016020604051808303816000875af1158015610587573d6000803e3d6000fd5b505050506040513d601f19601f820116820180604052508101906105ab9190611037565b6105e95760405162461bcd60e51b815260206004820152600f60248201526e151c985b9cd9995c8819985a5b1959608a1b60448201526064016103ef565b60405181815233907f86a5cc8fe9af9ae68fb50f62885307a7755a30cbd290131644377f0bd94a71819060200160405180910390a2505061062960018055565b50565b600083815260026020526040902080546001600160a01b031633146106885760405162461bcd60e51b81526020600482015260126024820152712737ba1031b7bab939b29031b932b0ba37b960711b60448201526064016103ef565b600181018390556002810161069d83826110a8565b50837f4965ce9528479ca02830fcc7534f8a47ae03800f177f4c68ae661d926af2e77984846040516106d0929190611168565b60405180910390a250505050565b6106e6610d3b565b6106f06000610d68565b565b60026020819052600091825260409091208054600182015492820180546001600160a01b0390921693929161072690610ffd565b80601f016020809104026020016040519081016040528092919081815260200182805461075290610ffd565b801561079f5780601f106107745761010080835404028352916020019161079f565b820191906000526020600020905b81548152906001019060200180831161078257829003601f168201915b505050506003830154600490930154919260ff1691905085565b6107c1610d3b565b601e8111156108015760405162461bcd60e51b815260206004820152600c60248201526b08ccaca40e8dede40d0d2ced60a31b60448201526064016103ef565b600655565b61080e610d11565b6000818152600260205260409020600381015460ff166108675760405162461bcd60e51b8152602060048201526014602482015273436f75727365206973206e6f742061637469766560601b60448201526064016103ef565b33600090815260036020908152604080832085845290915290205460ff16156108c65760405162461bcd60e51b8152602060048201526011602482015270105b1c9958591e481c1d5c98da185cd959607a1b60448201526064016103ef565b60018101546040516370a0823160e01b81523360048201527f00000000000000000000000000000000000000000000000000000000000000006001600160a01b0316906370a0823190602401602060405180830381865afa15801561092f573d6000803e3d6000fd5b505050506040513d601f19601f820116820180604052508101906109539190611189565b10156109985760405162461bcd60e51b8152602060048201526014602482015273496e73756666696369656e742062616c616e636560601b60448201526064016103ef565b60018101546040516323b872dd60e01b815233600482015230602482015260448101919091527f00000000000000000000000000000000000000000000000000000000000000006001600160a01b0316906323b872dd906064016020604051808303816000875af1158015610a11573d6000803e3d6000fd5b505050506040513d601f19601f82011682018060405250810190610a359190611037565b610a725760405162461bcd60e51b815260206004820152600e60248201526d14185e5b595b9d0819985a5b195960921b60448201526064016103ef565b6000606482600401548360010154610a8a91906111b8565b610a9491906111d5565b9050600060646006548460010154610aac91906111b8565b610ab691906111d5565b905081600460008681526020019081526020016000206000828254610adb91906111f7565b9091555050336000818152600360209081526040808320888452909152808220805460ff191660011790555186917f8120f2f8a682e2fd88bad8beb5760b02b7fec7a59d2d9bebb84b3e277bc152d291a350505061062960018055565b60006064821115610b8b5760405162461bcd60e51b815260206004820181905260248201527f496e76616c696420726576656e75652073686172652070657263656e7461676560448201526064016103ef565b606460065483610b9b91906111f7565b1115610be25760405162461bcd60e51b8152602060048201526016602482015275546f74616c206665657320657863656564203130302560501b60448201526064016103ef565b6005805460009182610bf38361120a565b909155506040805160a0810182523381526020808201898152828401898152600160608501819052608085018a9052600087815260029485905295909520845181546001600160a01b0319166001600160a01b039091161781559151948201949094559251939450909290820190610c6b90826110a8565b50606082015160038201805460ff1916911515919091179055608090910151600490910155604051339082907f78db422d3ef3aae3907af31eb656ee0e8486da88495c1c85049c10f1d4d5851990610cc69089908990611168565b60405180910390a3949350505050565b610cde610d3b565b6001600160a01b038116610d0857604051631e4fbdf760e01b8152600060048201526024016103ef565b61062981610d68565b600260015403610d3457604051633ee5aeb560e01b815260040160405180910390fd5b6002600155565b6000546001600160a01b031633146106f05760405163118cdaa760e01b81523360048201526024016103ef565b600080546001600160a01b038381166001600160a01b0319831681178455604051919092169283917f8be0079c531659141344cd1fd0a4f28419497f9722a3daafe3b4186f6b6457e09190a35050565b600060208284031215610dca57600080fd5b5035919050565b6000815180845260005b81811015610df757602081850181015186830182015201610ddb565b506000602082860101526020601f19601f83011685010191505092915050565b60018060a01b038616815284602082015260a060408201526000610e3e60a0830186610dd1565b931515606083015250608001529392505050565b634e487b7160e01b600052604160045260246000fd5b600082601f830112610e7957600080fd5b813567ffffffffffffffff80821115610e9457610e94610e52565b604051601f8301601f19908116603f01168101908282118183101715610ebc57610ebc610e52565b81604052838152866020858801011115610ed557600080fd5b836020870160208301376000602085830101528094505050505092915050565b600080600060608486031215610f0a57600080fd5b8335925060208401359150604084013567ffffffffffffffff811115610f2f57600080fd5b610f3b86828701610e68565b9150509250925092565b80356001600160a01b0381168114610f5c57600080fd5b919050565b60008060408385031215610f7457600080fd5b610f7d83610f45565b946020939093013593505050565b600080600060608486031215610fa057600080fd5b83359250602084013567ffffffffffffffff811115610fbe57600080fd5b610fca86828701610e68565b925050604084013590509250925092565b600060208284031215610fed57600080fd5b610ff682610f45565b9392505050565b600181811c9082168061101157607f821691505b60208210810361103157634e487b7160e01b600052602260045260246000fd5b50919050565b60006020828403121561104957600080fd5b81518015158114610ff657600080fd5b601f8211156110a357600081815260208120601f850160051c810160208610156110805750805b601f850160051c820191505b8181101561109f5782815560010161108c565b5050505b505050565b815167ffffffffffffffff8111156110c2576110c2610e52565b6110d6816110d08454610ffd565b84611059565b602080601f83116001811461110b57600084156110f35750858301515b600019600386901b1c1916600185901b17855561109f565b600085815260208120601f198616915b8281101561113a5788860151825594840194600190910190840161111b565b50858210156111585787850151600019600388901b60f8161c191681555b5050505050600190811b01905550565b8281526040602082015260006111816040830184610dd1565b949350505050565b60006020828403121561119b57600080fd5b5051919050565b634e487b7160e01b600052601160045260246000fd5b80820281158282048414176111cf576111cf6111a2565b92915050565b6000826111f257634e487b7160e01b600052601260045260246000fd5b500490565b808201808211156111cf576111cf6111a2565b60006001820161121c5761121c6111a2565b506001019056fea2646970667358221220e912e21d58192a01a9608758f8b68ed7fce23ccacb5f551dfd1dec651b7a812864736f6c63430008140033",
  "linkReferences": {},
  "deployedLinkReferences": {}
}